:020000040000FA
:0400000000EF04F019
:0400080004EF04F00D
:040018000CEF04F0F5
:040800005AEF04F0B7
:020804000000F2
:040808007DEF04F08C
:0408180088EF04F071
:04081C006C0E006EF0
:10082000290E016E1B0E026E002E01D0012E01D08A
:10083000022EFAD700D0000013007E0E006EBC0E10
:10084000016E002E01D0012EFCD700D00000130055
:10085000D10E006E4F0E016E020E026E002E01D000
:10086000012E01D0022EFAD71300A30E006E9E0EA9
:10087000016E030E026E002E01D0012E01D0022E59
:10088000FAD700D01300BE0E006E5E0E016E002E71
:1008900001D0012E47EF04F000D0000013005E0EDF
:1008A000006E0A0E016E002E01D0012EFCD700D082
:0408B0000000130031
:0C08B400959693880D0E83760BD081A8DA
:1008C00001D0FAD781A8FED728EC04F0002A0464EE
:1008D00006D0F2D709E10BE13D0A0CE1EDD70D0E90
:1008E000EBD70EEC04F0EBD735EC04F0E8D743EC93
:1008F00004F0E5D74FEC04F0E2D7636FD8CF64F093
:10090000E0CF65F065C0E0FF635164C0D8FF100020
:10091000606FD8CF61F0E0CF62F062C0E0FF60515D
:0609200061C0D8FF1000C9
:00000001FF
